:1000000016EF00F00000000000EF00F0000000001C
:0A0010000000000000000000F3D71C
:10001C000900F5CFE6FF0006FBE10106F9E112004D
:10002C00946A0F0EC16E070EB46E040E826E0D0E26
:10003C000B6EAF0E0C6EB60E0D6E0D2EFED70C2E7B
:10004C00FCD70B2EFAD70000060E826E0D0E0B6E2F
:10005C00AF0E0C6EB60E0D6E0D2EFED70C2EFCD701
:10006C000B2EFAD700000E0E826E0D0E0B6EAF0E1D
:10007C000C6EB60E0D6E0D2EFED70C2EFCD70B2E65
:10008C00FAD700000F0E826E0D0E0B6EAF0E0C6EBB
:10009C00B60E0D6E0D2EFED70C2EFCD70B2EFAD7EE
:1000AC0000000E0E826E0D0E0B6EAF0E0C6EB60EA9
:1000BC000D6E0D2EFED70C2EFCD70B2EFAD7000092
:1000CC00060E826E0D0E0B6EAF0E0C6EB60E0D6E16
:1000DC000D2EFED70C2EFCD70B2EFAD70000826A01
:1000EC00040E826E0D0E0B6EAF0E0C6EB60E0D6EF8
:1000FC000D2EFED70C2EFCD70B2EFAD7000095D761
:02010C00FFD71B
:020000040030CA
:0D000100021F1EFF8181FF0FC00FE00F40A6
:00000001FF
