:1000000016EF00F00000000000EF00F0000000001C
:0A0010000000000000000000F3D71C
:10001C000900F5CFE6FF0006FBE10106F9E112004D
:10002C00936A946A956A816A826A836A020E816E07
:10003C003F0E836E060E0B6E130E0C6EAD0E0D6E18
:10004C000D2EFED70C2EFCD70B2EFAD7000000007D
:10005C00060E836E060E0B6E130E0C6EAD0E0D6E31
:10006C000D2EFED70C2EFCD70B2EFAD7000000005D
:10007C005B0E836E060E0B6E130E0C6EAD0E0D6EBC
:10008C000D2EFED70C2EFCD70B2EFAD7000000003D
:10009C004F0E836E060E0B6E130E0C6EAD0E0D6EA8
:1000AC000D2EFED70C2EFCD70B2EFAD7000000001D
:1000BC00660E836E060E0B6E130E0C6EAD0E0D6E71
:1000CC000D2EFED70C2EFCD70B2EFAD700000000FD
:1000DC006D0E836E060E0B6E130E0C6EAD0E0D6E4A
:1000EC000D2EFED70C2EFCD70B2EFAD700000000DD
:1000FC007D0E836E060E0B6E130E0C6EAD0E0D6E1A
:10010C000D2EFED70C2EFCD70B2EFAD700000000BC
:10011C00070E836E060E0B6E130E0C6EAD0E0D6E6F
:10012C000D2EFED70C2EFCD70B2EFAD7000000009C
:10013C007F0E836E060E0B6E130E0C6EAD0E0D6ED7
:10014C000D2EFED70C2EFCD70B2EFAD7000000007C
:10015C006F0E836E060E0B6E130E0C6EAD0E0D6EC7
:10016C000D2EFED70C2EFCD70B2EFAD7000000005C
:04017C005DD7FFD775
:020000040030CA
:0D000100021F1EFF8181FF0FC00FE00F40A6
:00000001FF
