:1000000016EF00F00000000000EF00F0000000001C
:0A0010000000000000000000F3D71C
:10001C000900F5CFE6FF0006FBE10106F9E112004D
:10002C00936A946A956A816A826A836A010E836E06
:10003C00826A020E816E060E0B6E130E0C6EAD0EE6
:10004C000D6E0D2EFED70C2EFCD70B2EFAD7000002
:10005C000000020E836E060E0B6E130E0C6EAD0EB0
:10006C000D6E0D2EFED70C2EFCD70B2EFAD70000E2
:10007C000000040E836E060E0B6E130E0C6EAD0E8E
:10008C000D6E0D2EFED70C2EFCD70B2EFAD70000C2
:10009C000000080E836E060E0B6E130E0C6EAD0E6A
:1000AC000D6E0D2EFED70C2EFCD70B2EFAD70000A2
:1000BC000000040E816E060E0B6E130E0C6EAD0E50
:1000CC000D6E0D2EFED70C2EFCD70B2EFAD7000082
:1000DC000000080E836E060E0B6E130E0C6EAD0E2A
:1000EC000D6E0D2EFED70C2EFCD70B2EFAD7000062
:1000FC000000080E816E060E0B6E130E0C6EAD0E0C
:10010C000D6E0D2EFED70C2EFCD70B2EFAD7000041
:10011C000000080E836E060E0B6E130E0C6EAD0EE9
:10012C000D6E0D2EFED70C2EFCD70B2EFAD7000021
:10013C000000816A100E826E060E0B6E130E0C6E92
:10014C00AD0E0D6E0D2EFED70C2EFCD70B2EFAD746
:10015C0000000000080E836E060E0B6E130E0C6E64
:10016C00AD0E0D6E0D2EFED70C2EFCD70B2EFAD726
:10017C0000000000100E836E060E0B6E130E0C6E3C
:10018C00AD0E0D6E0D2EFED70C2EFCD70B2EFAD706
:10019C0000000000200E836E060E0B6E130E0C6E0C
:1001AC00AD0E0D6E0D2EFED70C2EFCD70B2EFAD7E6
:1001BC0000000000010E836E060E0B6E130E0C6E0B
:1001CC00AD0E0D6E0D2EFED70C2EFCD70B2EFAD7C6
:1001DC0000000000826A080E816E060E0B6E130E74
:1001EC000C6EAD0E0D6E0D2EFED70C2EFCD70B2EFD
:1001FC00FAD700000000010E836E060E0B6E130E74
:10020C000C6EAD0E0D6E0D2EFED70C2EFCD70B2EDC
:10021C00FAD700000000040E816E060E0B6E130E52
:10022C000C6EAD0E0D6E0D2EFED70C2EFCD70B2EBC
:10023C00FAD700000000010E836E060E0B6E130E33
:10024C000C6EAD0E0D6E0D2EFED70C2EFCD70B2E9C
:0A025C00FAD700000000EAD6FFD731
:020000040030CA
:0D000100021F1EFF8181FF0FC00FE00F40A6
:00000001FF
