:1000000034EF00F00000000000EF00F000000000FE
:0A0010000000000000000000F3D71C
:10001C000900F5CFE6FF0006FBE10106F9E112004D
:10002C00960E156E000E166E016A026A800E02188C
:10003C00006E800E1618005C02E11550015C0DE29A
:10004C00030E0C6E970E0D6E0D2EFED70C2EFCD7DC
:0C005C0000000000014A022AE9D712004F
:10006800926A946A956A966A0F0EC16E070EB46E0C
:10007800806A826A836A846A010E836E828AD2DF0A
:10008800829A8288CFDF82988484CCDF84948086A9
:10009800C9DF020E836EC6DF040E836EC3DF080E4F
:1000A800836E80968484BEDF84948288BBDF8298C6
:1000B800828AB8DF100E836EB5DF200E836EB2DF42
:0400C800DBD7FFD7AC
:020000040030CA
:0D000100021F1EFF8181FF0FC00FE00F40A6
:00000001FF
